:020000040800F2
:10000000C80C0020CD010008993F00087B0C0008B7
:10001000953F000809060008E34D000800000000B5
:100020000000000000000000000000005F46000823
:100030004D090008000000000D400008814800083C
:10004000E7010008E7010008E7010008E7010008F0
:10005000E7010008E7010008E7010008E7010008E0
:10006000E7010008E7010008E7010008E7010008D0
:10007000E7010008E7010008E7010008E7010008C0
:10008000E7010008E7010008E7010008E7010008B0
:10009000E7010008E7010008E7010008E7010008A0
:1000A000E7010008E7010008E7010008E701000890
:1000B000E7010008F1480008E7010008E70100082F
:1000C000E7010008E7010008E7010008E701000870
:1000D000E7010008E7010008E7010008E701000860
:1000E000E7010008E7010008E7010008E701000850
:1000F000E7010008E7010008E7010008E701000840
:10010000E7010008E7010008E7010008E70100082F
:10011000854A0008E7010008E7010008E701000838
:10012000E7010008E7010008E7010008E70100080F
:1001300000F002F800F03AF80AA090E8000C8244BF
:100140008344AAF10107DA4501D100F02FF8AFF29C
:10015000090EBAE80F0013F0010F18BFFB1A43F0A5
:1001600001031847EC4F00000C500000103A24BF68
:1001700078C878C1FAD8520724BF30C830C144BF0C
:1001800004680C607047000000230024002500264E
:10019000103A28BF78C1FBD8520728BF30C148BFEA
:1001A0000B6070471FB51FBD10B510BD00F0A8F85B
:1001B0001146FFF7F7FF04F071FF00F0C6F803B433
:1001C000FFF7F2FF03BC00F0CBF8000009488047BE
:1001D00009480047FEE7FEE7FEE7FEE7FEE7FEE729
:1001E000FEE7FEE7FEE7FEE704480549054A064B41
:1001F000704700008548000831010008C80600204B
:10020000C80C0020C8080020C8080020032A40F2BB
:10021000308010F0030C00F0158011F8013BBCF1A8
:10022000020F624498BF11F801CB00F8013B38BFC0
:1002300011F8013BA2F1040298BF00F801CB38BFCE
:1002400000F8013B11F0030300F02880083AC0F0E9
:10025000088051F8043B083A51F804CBA0E8081094
:10026000F5E7121D5CBF51F8043B40F8043BAFF3C7
:100270000080D20724BF11F8013B11F801CB48BF21
:1002800011F8012B24BF00F8013B00F801CB48BF57
:1002900000F8012B704770477047704710B5203A3F
:1002A000C0F00B80B1E81850203AA0E81850B1E82F
:1002B0001850A0E81850BFF4F5AF5FEA027C24BFE5
:1002C000B1E81850A0E8185044BF18C918C0BDE8DC
:1002D00010405FEA827C24BF51F8043B40F8043BA5
:1002E00008BF7047D20728BF31F8023B48BF11F85A
:1002F000012B28BF20F8023B48BF00F8012B7047B4
:10030000754600F029F8AE4605006946534620F0D0
:100310000700854618B020B5FFF766FFBDE820400E
:100320004FF000064FF000074FF000084FF0000BB1
:1003300021F00701AC46ACE8C009ACE8C009ACE864
:10034000C009ACE8C0098D4670470446AFF3008091
:100350002046FFF734FF0000004870476406002085
:1003600001491820ABBEFEE726000200704721B10C
:10037000826842F00102826003E0826822F001029A
:100380008260704710B504461248844208D10121AA
:10039000401503F0A7FE0021601503F0A3FE17E04F
:1003A0000D48844208D10121001503F09BFE002175
:1003B000201503F097FE0BE00848844208D1012184
:1003C000C80303F08FFE00214FF4004003F08AFEC3
:1003D00010BD00000024014000280140003C014005
:1003E000014600208A6802F004020AB1012000E000
:1003F000002070470146C86C80B27047024600205A
:1004000013680B400BB1012000E00020704701464B
:1004100000208A6802F008020AB1012000E00020F2
:100420007047000030B502460020002350680F4C92
:1004300020400D790C6844EA052420435060906800
:100440000B4C2040D1E902542C434D7944EA450439
:1004500020439060D06A20F470000C7C641EE4B2EB
:10046000234340EA0350D06230BD0000FFFEF0FF9E
:10047000FDF7F1FFF0B504460D4600200021092DDF
:1004800011DDE068A5F10A0606EB4607072606FA25
:1004900007F18843A5F10A0606EB460603FA06F1C2
:1004A0000843E0600CE0206905EB4507072606FAE3
:1004B00007F1884305EB450603FA06F1084320617E
:1004C000072A0FDA606B561E06EB86071F2606FA10
:1004D00007F18843561E06EB860605FA06F1084327
:1004E000606322E00D2A0FDA206BD61F06EB860729
:1004F0001F2606FA07F18843D61F06EB860605FA83
:1005000006F10843206310E0E06AA2F10D0606EB55
:1005100086071F2606FA07F18843A2F10D0606EBAF
:10052000860605FA06F10843E062F0BD816841F0F5
:1005300008018160704721B1826842F4A0028260A4
:1005400003E0826822F4A00282607047816841F073
:10055000040181607047000000B587B001214FF4AD
:10056000057003F0AFFD4FF4004003F08FFD012054
:10057000ADF8040000208DF8070001A91E4800F026
:10058000B7FA0120ADF8040001A91C4800F0B0FA48
:100590001020ADF8040001A9194800F0A9FA194883
:1005A000FFF7F0FE002002908DF80C008DF80D0092
:1005B0004FF4602004900020059001208DF8180071
:1005C00002A91048FFF72EFF01210E48FFF7CFFECA
:1005D0000C48FFF7ABFF00BF0A48FFF718FF0028E1
:1005E000FAD10848FFF7B2FF00BF0648FFF7F8FE50
:1005F0000028FAD107B000BD00080140000C0140FE
:10060000001001400024014000BFFEE70021C94A5C
:10061000128812B1012A7CD1C5E0C74A128890B273
:10062000020AC64B9A70D870C54A128840F6AB13BE
:100630005A43100B020AC14B1A715871C04A928971
:1006400040F6AB135A43100B020ABC4B9A71D87197
:10065000BB4A128A40F6AB135A43100B020AB74B3F
:100660001A725872B64A928A40F6AB135A43100B6C
:10067000020AB24B9A72D872B14A128B40F6AB138F
:100680005A43100B020AAD4B1A735873AC4A928B43
:1006900040F6AB135A43100B020AA84B9A73D87357
:1006A000A74A128C40F6AB135A43100B020AA34B15
:1006B0001A745874A24A928C40F6AB135A43100B2A
:1006C000020A9E4B9A74D8749D4A128D40F6AB1361
:1006D0005A43100B020A994B1A7558750020020AEA
:1006E0009A75D875974A1088020A1A765876954AEC
:1006F0005088020A9A76D876924A9088020A1A7727
:100700005877904AD088020A9A77D8778C4AD28D47
:1007100000E00CE140F6AB135A43100B020A874B82
:1007200083F8202083F82100854A128E40F6AB130F
:100730005A43100B020A814B83F8222083F82300CE
:100740007F4A528E40F6AB135A43100B020A7B4B82
:1007500083F8242083F82500794A928E40F6AB1363
:100760005A43100B020A754B83F8262083F82700A2
:100770000022754B1A800AE0704A734B1B88D25CCA
:100780000A4491B2704A1288521C6F4B1A806E4A0A
:100790001288282AF0DBC9B2684A82F828100122A0
:1007A000644B1A80C4E0644A128890B2020A634B18
:1007B0009A70D870624A528840F6AB135A43100BB5
:1007C000020A5E4B1A7158715D4AD28940F6AB132A
:1007D0005A43100B020A594B9A71D871584A528ADF
:1007E00040F6AB135A43100B020A544B1A7258725C
:1007F000534AD28A40F6AB135A43100B020A4F4BAE
:100800009A72D8724E4A528B40F6AB135A43100B71
:10081000020A4A4B1A735873494AD28B40F6AB13FB
:100820005A43100B020A454B9A73D873444A528CB0
:1008300040F6AB135A43100B020A404B1A7458741B
:100840003F4AD28C40F6AB135A43100B020A3B4B83
:100850009A74D8743A4A528D40F6AB135A43100B2F
:10086000020A364B1A7558750120020A9A75D87516
:10087000344A1088020A1A765876324A5088020A98
:100880009A76D8762F4A9088020A1A7758772D4A96
:10089000D088020A9A77D877294AD28D40F6AB13CE
:1008A0005A43100B020A254B83F8202083F82100BD
:1008B000234A128E40F6AB135A43100B020A1F4B09
:1008C00083F8222083F823001D4A528E40F6AB1392
:1008D0005A43100B020A194B83F8242083F8250091
:1008E000174A928E40F6AB135A43100B020A134B71
:1008F00083F8262083F827000022134B1A800AE091
:100900000E4A114B1B88D25C0A4491B20E4A1288DF
:10091000521C0D4B1A800C4A1288282AF0DBC9B2EF
:10092000064A82F828100022024B1A8000E000BF1D
:1009300000BF704784000020740000200C010020DC
:10094000080200207C000020720000207047000098
:100950000022114B1A80114B1A80114A12880A2367
:1009600092FBF3F291B20E4A1288282392FBF3F223
:1009700090B20C4A1288914204D00A4A1180012296
:10098000064B1A80084A1288904204D0064A10800A
:100990000122014B1A8070474400002042000020D1
:1009A00040000020600000206200002008B54FF4E5
:1009B0008070ADF8000003208DF8020010208DF843
:1009C00003006946154800F093F84FF48070ADF8C5
:1009D000000003208DF8020010208DF80300694606
:1009E0000F4800F085F81E20ADF8000003208DF8B8
:1009F000020010208DF8030069460A4800F078F8DC
:100A00000120ADF8000003208DF8020010208DF8C1
:100A100003006946044800F06BF808BD0008014077
:100A200000100140001401400018014008B54FF4C7
:100A30004C40ADF8000003208DF8020010208DF826
:100A4000030069460F4800F053F84FF44060ADF8DA
:100A5000000003208DF8020010208DF80300694685
:100A6000094800F045F84FF6FE70ADF8000003208D
:100A70008DF8020010208DF803006946034800F04D
:100A800037F808BD000C0140001401400018014077
:100A900008B54FF40040ADF8000048208DF8030081
:100AA0006946124800F024F84FF48040ADF8000089
:100AB00048208DF8030069460C4800F019F84FF4FF
:100AC0000050ADF8000048208DF803006946074843
:100AD00000F00EF84FF48050ADF8000048208DF87B
:100AE00003006946014800F003F808BD0014014006
:100AF0002DE9F041024600250026002000230024B5
:100B0000002791F803C00CF00F0591F803C00CF01A
:100B1000100CBCF1000F03D091F802C04CEA05059F
:100B200091F800C0BCF1000F31D0146800202BE018
:100B30004FF0010C0CFA00F3B1F800C00CEA030608
:100B40009E4220D183004FF00F0C0CFA03F7BC43F8
:100B500005FA03FC4CEA040491F803C0BCF1280F29
:100B600006D14FF0010C0CFA00FCC2F814C00AE0E8
:100B700091F803C0BCF1480F05D14FF0010C0CFAFD
:100B800000FCC2F810C0401C0828D1D31460B1F892
:100B900000C0BCF1FF0F34DD546800202EE000F1EE
:100BA000080C4FF0010808FA0CF3B1F800C00CEA89
:100BB00003069E4221D183004FF00F0C0CFA03F77D
:100BC000BC4305FA03FC4CEA040491F803C0BCF1F1
:100BD000280F05D100F1080C08FA0CF8C2F81480AF
:100BE00091F803C0BCF1480F07D100F1080C4FF099
:100BF000010808FA0CF8C2F81080401C0828CED36F
:100C00005460BDE8F0810246002093680B400BB1B0
:100C1000012000E00020704710B5044607230122A0
:100C200021460948FFF726FC01210748FFF783FC0E
:100C300000BF02210448FFF7E1FB0028F9D0024879
:100C4000FFF7D8FB10BD0000002401402DE9F04162
:100C500007460C460025002608E03846FFF7DCFF73
:100C60000544052004F0F4F9701CC6B2A642F4DB7A
:100C7000B5FBF4F080B2BDE8F08100BFFEE70000F4
:100C800000200321154A11702A2151700D2182F88C
:100C900029101349B1F8481021F020012031104AE1
:100CA000A2F848101146B1F8481021F00101491C82
:100CB000A2F8481000210B4A11800B490B4A116021
:100CC00000210B4A118000BF05E00021064A42F8CE
:100CD0002010411C88B23228F7D370470C01002045
:100CE0000802002070000020400100206C0000205D
:100CF0006A00002070B50024002505210020FFF7C0
:100D0000A5FF044605210E20FFF7A0FF0546FE487B
:100D1000006801283ED1B4F5967F02DDB5F5967FD7
:100D200008DCFA4890F8480000F0010010B10820F3
:100D3000F7490880B4F5427F2CDD40F25A308442F6
:100D400028DCB5F5437F25DB001D854222DCEF481A
:100D500090F84800C0F34000E0B10120ED49086080
:100D60000020ED49C1F888010120EA49091D086009
:100D70000020EA4908600120E64908390860092096
:100D8000E3490880E148B0F8480020F00200DF495C
:100D9000A1F84800E248008801280ED1E148008807
:100DA000401CE0490880E0480088401CDE4908807B
:100DB000DE480088401CDD490880DB4800880228A6
:100DC00002DB0020D8490880D14800880A2879D25F
:100DD000DFE800F00589F3F2F1F07878EFEED4481F
:100DE000006848B90020C8490860CE490880CF494A
:100DF00008800120CE490860CA480088032871DBBA
:100E00000020C4490860C449C1F88801C149091DCE
:100E10000860C2490860C049C1F88401C54800683B
:100E200058B905210020FFF711FFB84908800120BB
:100E3000C04908600020BD490880B4480088B0F56A
:100E4000427F40DDB148008840F25A3188423ADCA6
:100E5000B948008820F00300401CB74908800120F1
:100E6000B6490860B148008814283BDB0521002002
:100E7000FFF7ECFEA54948800020B0490860A34870
:100E8000408840F2622188420CDBA0484088B0F5DF
:100E9000347F07DAA848008820F00C00001DA6491E
:100EA000088006E0A448008820F00C000830A24921
:100EB000088000209F4908609D49086001209449EE
:100EC00008800FE02CE39C48008820F00300801C81
:100ED00099490880002097490860954908600120D9
:100EE0008B4908801DE39248006838B900208D497D
:100EF00008808E49088001208D4908608948008853
:100F00001E286ADB8B48006858B905210E20FFF7C0
:100F10009DFE7E4988810120864908600020834922
:100F200008807A488089B0F5437F47DB774880891D
:100F300040F25E31884241DC7F48008820F030007A
:100F400010307D49088001207C491C3108607748B9
:100F50000088142841DB05210E20FFF777FE6B493E
:100F6000C881002075491C3108606848C089B0F507
:100F70002E7F0DDB6548C08940F20231884207DCD4
:100F80006D48008820F0C00040306B49088006E0C2
:100F90006948008820F0C000803067490880002040
:100FA000644908606249086002205949088014E0D9
:100FB0006DE248E2BAE135E191E00FE05E48008879
:100FC00020F0300020305C4908800020594908603A
:100FD0005749086002204E490880A2E25448006840
:100FE00048B900204F4908805049088001205049E5
:100FF0000860534908604B48008804286EDB0020D5
:101000004F49086047480088082867DB494800685E
:1010100058B905210E20FFF719FE3C49088201202E
:10102000444908600020414908803848008A40F25D
:101030007C51884242DB3548008AB0F5C26F3DDC06
:101040003D48008820F4407000F580703A490880DF
:10105000012030491C3108603448008814283DDBE9
:1010600005210E20FFF7F2FD28494882002029497A
:101070001C3108602548408AB0F5A26F0DDB23487B
:10108000408AB0F5B36F08DC2B48008820F440603C
:1010900000F580602849088007E02748008820F490
:1010A000406000F500602449088000202149086064
:1010B0001F4908600320164908800FE01E48008879
:1010C00020F4407000F500701B4908800020194989
:1010D00008601749086003200D49088021E2144880
:1010E000006848B900200F49088010490880012095
:1010F0000F490860124908600A48008804287DDB0F
:1011000000200F4908601DE0780000200802002040
:10111000860000208C81224200802242A0012142D0
:10112000420000205A000020580000205C000020EF
:101130004C000020480000207C0000209401234245
:10114000B8812142FE48008808286ADBFD48006813
:1011500058B905210E20FFF779FDFB49888201204F
:10116000F84908600020F9490880F748808A40F271
:101170004D71884245DBF448808A40F6120188426E
:101180003FDCF348008820F4405000F58050F049DF
:1011900008800120EF490860EC480088142840DBF3
:1011A00005210E20FFF752FDE749C8820020E949DA
:1011B0000860E548C08A40F2F76188420EDBE248E9
:1011C000C08A40F2B371884208DCE148008820F40C
:1011D000404000F58040DE49088007E0DC48008898
:1011E00020F4404000F50040D94908800020D5494E
:1011F0000860D94908600420D84900E011E008805F
:101200000FE0D348008820F4405000F50050D0494A
:1012100008800020CB490860CF4908600420CF49EE
:1012200008807EE1CC48006848B90020C4490880A5
:10123000C64908800120C8490860C9490860C048FB
:101240000088042871DB0020C5490860BC4800887C
:1012500008286ADBBB48006858B905210E20FFF753
:10126000F5FCB94908830120B64908600020B74958
:101270000880B548008B40F62511884246DBB2480D
:10128000008B40F61B21884240DCB148408820F0AA
:101290000300401CAE4948800120B2490860AB48B9
:1012A0000088142841DB05210E20FFF7CFFCA6495A
:1012B00048830846428BACA1002003F0C7F8002009
:1012C000A8490860A048408B40F6C20188420DDB67
:1012D0009D48408B40F6AE11884207DC9C48408810
:1012E00020F00C00001D9A49488006E0984840888C
:1012F00020F00C0008309649488000209149086091
:10130000954908600520954908800EE0904840887E
:1013100020F00300801C8E49488000208949086025
:101320008D49086005208D490880FAE08A480068E8
:1013300048B90020824908808449088001208649F4
:101340000860874908607E48008804287ADB00200E
:10135000834908607A480088082873DB7948006868
:1013600058B905210E20FFF771FC774988830120C9
:10137000744908600020754908807348808BB0F577
:10138000436F49DD7048808B40F6AB51884243DCA7
:101390006F48408820F0300010306D4948800120AF
:1013A0007049083908606948008814284ADB05211B
:1013B0000E20FFF74BFC6449C883002069490839B7
:1013C00008606148C08B40F6CF3188420DDB5E4833
:1013D000C08B40F60E51884207DC5D48408820F003
:1013E000C00040305A49488006E05948408820F003
:1013F000C0008030564948800620584908800120A6
:101400005E4908605048B0F8480020F00100401CD8
:101410004D49A1F8480015E04D48408820F03000C3
:1014200020304B49488006204C4908800120534910
:1014300008604548B0F8480020F00100401C4249CF
:10144000A1F848006DE04048B0F8480020F00100E5
:101450003D49A1F8480000203E4928390860484924
:10146000C1F88801474908603A4920390860091DD8
:10147000086034490860384908603348B0F84800CB
:1014800020F00200801C3049A1F8480049E000200B
:101490002F490880488088800846008820F0030093
:1014A00008800846008820F00C0008800846008864
:1014B00020F0300008800846008820F0C000088036
:1014C0000846008820F4407008800846008820F410
:1014D000406008800846008820F440500880084694
:1014E000008820F4404008800846408820F003002F
:1014F00048800846408820F00C0048800846408814
:1015000020F0300048800846408820F0C000488025
:1015100000200C4908601C4908801049088000E040
:1015200000BF00BF084890F8480000F00100002804
:101530007ED00748007800F00300022868D025E03C
:101540005A00002048000020080200205C00002013
:101550007C000020AC8122424C000020860000204C
:10156000B8812142980123427531365F43566C742D
:101570005F31355F46203D2025640A007800002059
:1015800000802242A0012142500000206C480078D7
:10159000C0F3810002283BD069480078C0F30110F5
:1015A000022835D066480078C0F3811002282FD079
:1015B00063480088C0F30120022829D060480088D1
:1015C000C0F38120022823D05D480088C0F3013099
:1015D00002281DD05A4800880221B1EB903F17D055
:1015E0005748807800F00300022811D054488078D2
:1015F000C0F3810002280BD051488078C0F301105D
:10160000022805D04E488078C0F3811002286DD1A1
:1016100001204C4908604A48007800F00300022885
:1016200005D047480078C0F3810002280AD100E0C5
:1016300084E001204349091D086000204249C1F8A7
:101640008C0107E000203F49091D086001203E4948
:10165000C1F88C013A480078C0F30110022835D057
:1016600037480078C0F3811002282FD03448008812
:10167000C0F30120022829D031480088C0F381201E
:10168000022823D02E480088C0F3013002281DD044
:101690002B4800880221B1EB903F17D02848807872
:1016A00000F00300022811D025488078C0F38100A3
:1016B00002280BD022488078C0F30110022805D000
:1016C0001F488078C0F38110022807D101201F49EC
:1016D000086000201C49C1F890012FE000201B4940
:1016E000086001201849C1F8900127E00120154940
:1016F0000831086000201449C1F88801012011490F
:101700000C31086000201249C1F8A001114800887E
:10171000042813DA104800880A280FDB09480068FB
:1017200008B9012000E000200649086000200A49AD
:10173000088008480088401C0649088070BD0000E9
:101740007C0000208481224200802242A0012142AC
:1017500000002142500000205A00002070B50025F2
:1017600000260024FE48006801287DD105210020C4
:10177000FFF76CFA054605210820FFF767FA0646D1
:1017800005210E20FFF762FA0446B5F5967F0EDCC0
:10179000B6F5967F0BDCB4F5967F08DCF14890F83F
:1017A000480000F0010010B11220EF490880B4F5A4
:1017B000967F08DCEB4890F84800C0F3001010B1A9
:1017C0001420E9490880B5F5427F29DD40F26E30EA
:1017D000854225DCB6F5437F22DB864220DCB4F56A
:1017E000437F1DDB84421BDCDE4890F84800C0F3D9
:1017F0004010A8B10120DD4908600020DC49C1F893
:10180000A0010120D9490C3908601320D64908806D
:10181000D448B0F8480020F02000D249A1F8480090
:10182000B5F5427F38DD40F26E30854234DCB6F5E6
:10183000437F31DB86422FDCB4F5437F2CDB8442CF
:101840002ADCC84890F84800C0F3400060B101208D
:10185000C649091F08600020C649C1F88801012057
:10186000C5490860002000E016E0C4490860012076
:10187000BE4908600020C24908600120BB490C39FC
:1018800008601520B8490880B648B0F8480020F034
:101890000200B449A1F84800BA48008801280ED1D6
:1018A000B9480088401CB8490880B8480088401CE6
:1018B000B6490880B6480088401CB5490880B3483E
:1018C0000088022802DB0020B0490880A648008872
:1018D000202881F0C382DFE810F020008001090297
:1018E00080020503A7031B04A1042B05C3053D06C5
:1018F000B9061B0708086C08C9082909C10ABE09EE
:10190000EF097F0A9E0AC10AC10AC10AC10AC10AB7
:10191000C10AC10AC10AC10AA5079E48006858B990
:1019200000208F4908609C490870974908809849B1
:101930000880012097490860934800881E287DDBB5
:1019400000208A4908608A49C1F8A0018949C1F884
:1019500084019148007830BB05210E20FFF776F90D
:101960008049888108468089B0F5437F0CDB0846B2
:101970008089B0F5597F07DA8848008820F0300068
:1019800010308649088006E08448008820F0300046
:1019900020308249088080480078401C7E490870C9
:1019A00000207B4908807C480078012835D17C499B
:1019B0000860774800880A282FDB002008607448F8
:1019C0000088282829DB05210E20FFF73FF965490B
:1019D00008820846008A40F27C5188420DDB61484B
:1019E000008AB0F5C26F08DC6C48008820F44070B3
:1019F00000F580706949088007E06848008820F495
:101A0000407000F500706549088063480078401C0C
:101A10006149087000205E4908805F48007802280C
:101A200039D101205E490860594800880A2832DB14
:101A30000020086056480088282800E0CBE02ADB18
:101A400005210E20FFF702F9464988820846808A60
:101A500040F24D7188420EDB4248808A40F6120106
:101A6000884208DC4D48008820F4405000F5805042
:101A70004A49088007E04948008820F4405000F5B2
:101A800000504649088044480078401C424908708C
:101A900000203F49088040480078032835D10120C4
:101AA0003F4908603A4800880A282EDB0020086079
:101AB00037480088282828DB05210E20FFF7C6F8C4
:101AC000284908830846008B40F6251188420DDB23
:101AD0002448008B40F61B21884207DC2F484088B1
:101AE00020F00300401C2D49488006E02B48408828
:101AF00020F00300801C2949488027480078401CBA
:101B000025490870002022490880234800780428CD
:101B100061D10120224908601D4800880A285ADB4B
:101B2000002008601A480088282854DB05210E2070
:101B3000FFF78CF80B4988830846808BB0F5436F1C
:101B400030DD0846808B40F6AB5188422ADC1348D2
:101B5000408820F0300010301049488029E0000013
:101B60007800002008020020880000209081224296
:101B70000000214200802242A00122428001234233
:101B8000A0012142420000205A00002058000020FD
:101B90005C0000204C0000208A0000207C00002017
:101BA000B8812142FE48408820F030002030FC49B6
:101BB00048800020FB4908700120FB4908601D2077
:101BC000FA490880FA48B0F8480020F010001030B8
:101BD000F749A1F8480001F042B9F648006848B951
:101BE0000020F1490860F4490880F4490880012088
:101BF000F0490860F0480088142876DB0020F0499E
:101C00000860F049C1F88801EF490860EF490860B1
:101C1000EB49091D0860EE490860EA49C1F88401F2
:101C2000EC48006858B905210020FFF70FF8E0499B
:101C300008800120E74908600020E0490880DC486E
:101C40000088B0F5427F41DDD9480088B0F5597F62
:101C50003CDAD348008820F00300401CD0490880BB
:101C60000120DA4914310860D448008864283CDB3C
:101C700005210020FEF7EAFFCD4948800020D34926
:101C800014310860CA48408840F2562188420DDB72
:101C9000C748408840F24D31884207DCC048008880
:101CA00020F00C00001DBE49088006E0BC480088FA
:101CB00020F00C000830BA4908800020C5490860AF
:101CC000BC4908600220B94908800EE0B448008889
:101CD00020F00300801CB24908800020BD49086044
:101CE000B44908600220B149088074E7B14800682F
:101CF00048B90020B0490880B0490880B64908803A
:101D00000120AC490860B348006858B90521082093
:101D1000FEF79CFFA64908840120AE490860002018
:101D2000A6490880A248008CB0F5427F44DDA04857
:101D3000008CB0F5597F3FDA9948408820F4407014
:101D400000F58070964948800120A0493431086030
:101D50009A48008864283FDB05210820FEF776FFBB
:101D60009349488400209949343108609048408C58
:101D700040F2562188420EDB8D48408C40F24D31B6
:101D8000884208DC8648408820F4406000F5806086
:101D90008349488007E08248408820F4406000F58D
:101DA00000607F49488000208A49086081490860B6
:101DB00003207E4908800FE07948408820F4407075
:101DC00000F5007076494880002082490860794912
:101DD0000860032075490880FDE67648006858B918
:101DE000002075490880754908807B4908800120DA
:101DF00070490860794908606F4800880A2870DBDC
:101E00000020764908606C480088282869DB714802
:101E1000006858B905210820FEF718FF6449888436
:101E200001206C4908600020644908806048808C6B
:101E300040F27C51884244DB5D48808CB0F5C26F33
:101E40003FDC5748408820F4405000F5805054490A
:101E5000488001205D493C3108605848008864286A
:101E60003FDB05210820FEF7F1FE5149C884002020
:101E700056493C3108604E48C08C40F2D2418842FD
:101E80000EDB4B48C08C40F2DC51884208DC4448F1
:101E9000408820F4404000F580404149488007E0F8
:101EA0003F48408820F4404000F500403C494880CD
:101EB0000020484908603F49086004203B490880E9
:101EC0000FE03748408820F4405000F50050344976
:101ED000488000203F4908603649086004203349A3
:101EE000088078E63348006848B900203249088005
:101EF0003249088001202F490860384908602E487F
:101F000000880A286CDB0020344908602A480088D1
:101F1000282865DB2F48006858B905210820FEF7FE
:101F200095FE2349088501202A490860002023499D
:101F300008801F48008D40F24D71884264DB1C48C8
:101F4000008D40F6120188425EDC1548808820F042
:101F50000300401C1249888001201C493831086068
:101F60001648008864285EDB05210820FEF76EFE17
:101F70000F49488500201549383108600C48408DCC
:101F800040F2F76188422FDB0948408D40F2B3717F
:101F9000884229DC0248808820F00C00001D20E0E7
:101FA0007C0000208A0000207800002088000020AB
:101FB000080200204C0000205A0000205C00002095
:101FC0008C81224200802242A001224280012342D1
:101FD000A0012142480000205E000020A88121428B
:101FE00021E0FE49888006E0FC48808820F00C0053
:101FF0000830FA4988800020F9490860F9490860EA
:102000000520F94908800EE0F448808820F003009C
:10201000801CF24988800020F1490860F14908607D
:102020000520F1490880D6E5EE48006838B900205F
:10203000EE490880EE4908800120EA490860EB4833
:102040000088B0F5FA7F62DBE548006858B90521E1
:102050000E20FEF7FBFDE74988810120E04908607A
:102060000020E3490880E3488089B0F5437F3FDBE7
:10207000E0488089B0F5597F3ADAD848008820F0E6
:1020800030001030D54908800120DB490860D8486D
:10209000008864283BDB05210E20FEF7D7FDD549DB
:1020A000C8810020D4490860D248C08940F2562136
:1020B00088420DDBCF48C08940F24D31884207DCB1
:1020C000C648008820F0C0004030C449088006E0BF
:1020D000C248008820F0C0008030C049088000203D
:1020E000BF490860BF4908600620BF4908800EE06C
:1020F000BA48008820F030002030B849088000201D
:10210000B7490860B74908600620B749088062E50A
:10211000B448006860B90020B4490880B449088018
:102120000120B0490860B5490860B549C1F8A80167
:10213000AE4800880A2870DB0020B0490860B0492A
:10214000C1F8A801A9480088282866DBA4480068CF
:1021500058B905210E20FEF779FDA6490882012015
:102160009F4908600020A2490880A248008A40F2E6
:102170007C51884241DB9F48008AB0F5C26F3CDC4D
:102180009648008820F4407000F5807093490880DC
:1021900001209C4908609648008864283DDB0521A1
:1021A0000E20FEF753FD93494882002095490860B0
:1021B0009048408AB0F5A26F0EDB8E48408A40F20C
:1021C000DC51884208DC8548008820F4406000F536
:1021D00080608249088007E08048008820F44060E1
:1021E00000F500607D49088000207D4908607D4938
:1021F000086007207C4908800FE07848008820F4B8
:10220000407000F50070754908800020744908602E
:1022100074490860072074490880DCE4714800684C
:1022200060B90020714908807149088001206D491A
:102230000860724908607249C1F8A8016B480088BB
:102240000A2874DB00206D4908606D49C1F8A801B7
:102250006648008828286ADB6148006858B905216B
:102260000E20FEF7F3FC6349888201205C49086078
:1022700000205F4908805F48808A40F24D718842A3
:1022800045DB5C48808A40F6120188423FDC5348B7
:10229000008820F4405000F580505049088001200B
:1022A0005849091D08605248008864283FDB052111
:1022B0000E20FEF7CBFC4F49C88200205149091D72
:1022C00008604C48C08A40F2F76188420EDB4948FA
:1022D000C08A40F2B371884208DC4048008820F48C
:1022E000404000F580403D49088007E03B480088B9
:1022F00020F4404000F5004038490880002038496B
:102300000860384908600820374908800FE03348E2
:10231000008820F4405000F500503049088000202B
:102320002F4908602F49086008202F49088052E48F
:102330002C48006848B900202C4908802C490880A6
:102340000120284908602D490860284800880A288B
:1023500075DB0020294908602448008828287EDB96
:102360001F48006858B905210E20FEF76FFC21496F
:10237000088301201A49086000201D4908801D4873
:10238000008B40F6251188425ADB1A48008B40F634
:102390001B21884254DC1148408820F00300401C77
:1023A0000E494880012014491839086010480088F7
:1023B000642854DB05210E20FEF748FC0D494883B4
:1023C00000200D49183908600A48408B40F6C201C8
:1023D000884225DB0748408B16E000007C00002087
:1023E000480000204C000020880000205A000020F7
:1023F0005C00002008020020B0012342B881214285
:1024000000802142A881224240F6AE11884207DCBA
:10241000F948408820F00C00001DF749488006E08C
:10242000F548408820F00C000830F349488000202F
:10243000F2490860F24908600920F24908800EE07C
:10244000ED48408820F00300801CEB4948800020C4
:10245000EA490860EA4908600920EA49088044E43A
:10246000E748006848B90020E7490880E749088044
:102470000120E3490860E6490860E34800880A282B
:1024800067DB0020E2490860DF480088282860DB1D
:10249000DA48006858B905210E20FEF7D7FBDD4960
:1024A00088830120D54908600020D8490880D94890
:1024B000808BB0F5436F3DDDD648808B40F6AB5145
:1024C000884237DCCC48408820F030001030CA49C0
:1024D00048800120D0490860CC480088642838DB57
:1024E00005210E20FEF7B2FBCA49C8830846C08BFF
:1024F00040F6CF3188420DDBC648C08B40F60E5106
:10250000884207DCBC48408820F0C0004030BA490F
:10251000488006E0B848408820F0C0008030B649C6
:1025200048800020B5490860B54908600A20B549CF
:1025300008800EE0B048408820F030002030AE49DE
:1025400048800020AD490860AD4908600A20AD49C7
:10255000088041E4A948006870B905210E20FEF703
:1025600075FBAC4988850120AB49091D0860A3496A
:1025700008600020A4490880A3480088FA2864DB8A
:10258000A6480088082823DAA04800880A281FDB0C
:10259000A348008802280CDA9D48006808B9012089
:1025A00000E000209A4908609C480088401C9B4934
:1025B00008809B480088401C994908800020934966
:1025C000088097480088042802DD0020944908808C
:1025D0008E480088962838DB05210E20FEF736FB52
:1025E0008C49C8850846808D40F6CF3188421ADB79
:1025F0008848808D40F60E51884214DC8548C08D95
:1026000040F6E41188420EDB8248C08D40F6174147
:10261000884208DC7848808820F4406000F58060BB
:102620007549888007E07448808820F4406000F590
:1026300000607149888000207849088072490880CC
:10264000724908800B206F4908804AE401207249D2
:102650002C3108606C480088B0F5FA7F57DB6F4872
:102660000088082823DA694800880A281FDB6C489C
:10267000008802280CDA6648006808B9012000E0EA
:1026800000206349086065480088401C6349088051
:1026900063480088401C6249088000205B4908802C
:1026A0005F480088042802DD00205D490880574803
:1026B000008896282BDB05210E20FEF7C7FA554926
:1026C00008860846008E40F26F7188420DDB514843
:1026D000008EB0F52D6F08DC4748808820F440500C
:1026E00000F580504449888007E04348808820F402
:1026F000405000F50050404988800020474908803C
:1027000041490880414908800C203E490880A6E3E1
:102710003B48006830B900203F49091D086001208E
:10272000374908603848008841F28831884262DBC6
:102730003A480088082823DA344800880A281FDB32
:102740003748008802280CDA3148006808B90120AF
:1027500000E000202E49086030480088401C2F49C6
:1027600008802F480088401C2D49088000202749F8
:1027700008802B480088042802DD002028490880B2
:1027800022480088962836DB05210E20FEF75EFAE7
:10279000204948860846408E40F6E411884218DBFE
:1027A0001C48408E40F61741884212DC124880884F
:1027B00020F4404000F580400F49888000201749F0
:1027C000088011490880114908800D200D490880B2
:1027D00011E001201049091D08600C480088FA2802
:1027E00009DB00200D490880074908800749088057
:1027F0001F200449088032E37C00002048000020AC
:102800004C000020880000205A0000205C000020BE
:10281000B88121420802002090012342520000208A
:10282000540000200020FE490860FE48008840F265
:10283000DC51884258DBFC480088082823DAFB4832
:1028400000880A281FDBFA48008802280CDAF948B9
:10285000006808B9012000E00020F6490860F2484D
:102860000088401CF0490880F1480088401CF0496D
:1028700008800020ED490880ED480088042802DD2A
:102880000020EB490880E948008896282CDB0521C8
:102890000E20FEF7DBF9E84948860846408E40F6F0
:1028A000E41188420EDBE448408E40F6174188422E
:1028B00008DCE248808820F4404000F58040DF4991
:1028C000888007E0DD48808820F4404000F5004023
:1028D000DA4988800020D4490880D2490880D34949
:1028E00008800D20D6490880B9E20020CC49283163
:1028F0000860CC480088B0F5FA7F59DBCA480088E8
:10290000082823DAC94800880A281FDBC84800883D
:1029100002280CDAC748006808B9012000E000204E
:10292000C4490860C0480088401CBF490880C048AE
:102930000088401CBE4908800020BC490880BC4873
:102940000088042802DD0020B9490880B7480088C3
:102950001E282DDB05210E20FEF778F9B649888662
:102960000846808E40F6CF3188420DDBB248808E1B
:1029700040F60E51884207DCB048C08820F00300C2
:10298000401CAE49C88006E0AC48C08820F0030077
:10299000801CAA49C8800020A149091F0860A249DB
:1029A0000880A8490860A84908600E20A44908804A
:1029B00055E2A448006850B900209A4908809B4914
:1029C000088001209F4908609549183108609548A2
:1029D0000088642849DB9C48006870B90521002004
:1029E000FEF734F99449088700208D4918310860B2
:1029F0008E4908800120944908608C480088FA2894
:102A000033DB05210020FEF721F98B494887084672
:102A1000008FB0F5F97F19DA0846408FB0F5427F94
:102A200014DD0846408FB0F5597F0FDA834880885F
:102A300020F03000103081498880002081490860F2
:102A4000814908600F207E4908800EE07B4880881D
:102A500020F03000203079498880002079490860D2
:102A6000794908600F2076490880F8E175480068C8
:102A700050B900206B4908806C49088001207149D9
:102A800008606C49091D08606648008864284CDBB2
:102A90006D48006870B905210820FEF7D7F866492F
:102AA000C88700206349091D08606049088001202B
:102AB000654908605D480088FA2836DB0521082052
:102AC000FEF7C4F85C49A1F840000846C08FB0F595
:102AD000F97F1BDA0846B0F84000B0F5427F15DDFB
:102AE0000846B0F84000B0F5597F0FDA53488088A7
:102AF00020F0C000403051498880002051490860D2
:102B00005149086010204E4908800EE04B488088EB
:102B100020F0C00080304949888000204949086081
:102B20004949086010204649088098E145480068F6
:102B300050B900203B4908803C49088001204149A8
:102B400008603749103108603648008864284BDB3C
:102B50003D48006878B905210E20FEF777F8364920
:102B6000A1F8440000202E49103108602F49088048
:102B70000120354908602D480088FA286ADB0521C4
:102B80000E20FEF763F82C49A1F846000846B0F87D
:102B90004400B0F5F97F28DA0846B0F84600B0F5F1
:102BA000437F22DB0846B0F84600B0F5597F1CDAB7
:102BB0002248808820F4407000F580701F4988808A
:102BC000002020490860204908601B48B0F84800F0
:102BD00020F00100401C1849A1F8480001201B49C1
:102BE00008601E201649088034E01448808820F4CC
:102BF000407000F50070114988800020114908607C
:102C0000114908600C48B0F8480020F00100401C51
:102C10000949A1F8480001200C4908601E2017E06E
:102C2000940123425A000020520000205C00002042
:102C300054000020B8812142080200207C000020BE
:102C4000880000204C000020480000207800002070
:102C5000FE49088003E1FE48B0F8480020F001007A
:102C6000FB49A1F848000020FA490860FA49C1F878
:102C70008801FA490860FA490860F6490831086095
:102C8000F8490860F3490C310860F44914310860D0
:102C9000F24938310860F14910310860F2490860A2
:102CA000F2490860EA48B0F8480020F020002030DF
:102CB000E749A1F84800D2E00020ED4908804880AB
:102CC0008880C8800846008820F0030008800846F5
:102CD000008820F00C0008800846408820F44070EE
:102CE00048800846408820F4406048800846408874
:102CF00020F4405048800846408820F440404880F6
:102D00000846808820F0030088800846808820F0EC
:102D10000C0088800846008820F0300008800846B3
:102D2000008820F0C00008800846008820F4407029
:102D300008800846008820F4406008800846008823
:102D400020F4405008800846008820F44040088065
:102D50000846408820F0030048800846408820F05C
:102D60000C0048800846408820F030004880084623
:102D7000408820F0C00048800846808820F030005D
:102D800088800846808820F0C000888008468088B7
:102D900020F4407088800846808820F44060888055
:102DA0000846808820F4405088800846808820F4B7
:102DB000404088800846C08820F00300C88008464C
:102DC000C08820F00C00C8800020A7490860A949ED
:102DD00008809E49088042E09D48B0F8480020F0F5
:102DE00010009B49A1F8480000209A490860A249B8
:102DF000C1F8A00197490C3108609B4908609B49C4
:102E000008609348B0F8480020F00200801C904908
:102E1000A1F8480023E09648008820F0300094494B
:102E200008800846008820F4407008800846008822
:102E300020F4405008800846408820F00300488075
:102E40000846408820F0300048800020864908600D
:102E50008849088001207D49088000E000BF00BF4C
:102E60007B4890F84800C0F3001070B380480078A9
:102E7000C0F30110022817D07D480088C0F301205C
:102E8000022811D07A480088C0F3013002280BD004
:102E90007748807800F00300022805D074488078D5
:102EA000C0F30110022811D17148C08820F00C0035
:102EB00008306F49C8800120664908606E49C1F832
:102EC000A001002063490C31086026E06848C088F2
:102ED00020F00C00001D6649C88001205D490C31BE
:102EE000086000206449C1F8A001624800880428F5
:102EF00013DA6248008807280FDB5648006808B9D3
:102F0000012000E000205349086000205B49088050
:102F100058480088401C574908804D4890F84800A0
:102F200000F0010000287DD05148007800F0030037
:102F3000022878D04E480078C0F38100022872D071
:102F40004B484088C0F3012002286CD04848408894
:102F5000C0F38120022866D045484088C0F3013084
:102F6000022860D0424840880221B1EB903F5AD0FD
:102F70003F48007900F00300022854D03C48007913
:102F8000C0F3810002284ED039480078C0F3011008
:102F9000022848D036480078C0F3811002287BD040
:102FA00033480088C0F30120022875D030480088DB
:102FB000C0F3812002286FD02D480088C0F3013073
:102FC000022869D02A480088B1EB903F64D0284895
:102FD000807800F0030002285ED025488078C0F396
:102FE0008100022858D022488078C0F301100228BE
:102FF00052D01F488078C0F3811002284CD01C4862
:103000000079C0F30110022846D019480079C0F3B6
:103010008110022840D016488088C0F30120022881
:103020003AD001E049E137E011488088C0F38120BF
:10303000022831D00E488088C0F3013002282BD0FE
:103040000B488088B1EB903F26D019E08800002023
:103050000802002084812242008022428001234213
:10306000A0012142A0012242480000204C00002083
:103070007C00002050000020000021425A00002067
:103080008E48807900F00300022805D08B488079B3
:10309000C0F3810002287DD1012089490860894957
:1030A000C1F89401884908608649C1F890018348B5
:1030B000007800F0030002280BD080480078C0F3AD
:1030C0008100022805D07D480079C0F30110022854
:1030D00008D101207A49091D086000207B49C1F808
:1030E0008C0107E000207649091D0860012077491E
:1030F000C1F88C0171484088C0F30120022823D018
:103100006E484088C0F3812002281DD06B4840885B
:10311000C0F30130022817D0684840880221B1EB83
:10312000903F11D06548007900F0030002280BD0D1
:1031300062480079C0F38100022805D05F48007919
:10314000C0F38110022808D101205F493839086096
:1031500000205F49C1F8A00107E000205A49383932
:10316000086001205A49C1F8A00154480078C0F312
:10317000011002285AD051480078C0F3811002286B
:1031800054D04E480088C0F3012002284ED04B484E
:10319000008800E05AE0C0F38120022846D047486A
:1031A0000088C0F30130022840D044480088022142
:1031B000B1EB903F3AD04148807800F003000228FC
:1031C00034D03E488078C0F3810002282ED03B489E
:1031D0008078C0F30110022828D038488078C0F3E6
:1031E0008110022822D035488088C0F301200228AF
:1031F0001CD032488088C0F38120022816D02F4886
:103200008088C0F30130022810D02C488088B1EBB0
:10321000903F0BD02948807900F00300022805D0A8
:1032200026488079C0F38100022807D1012029496E
:10323000086000202549C1F890013EE000202549A2
:10324000086001202149C1F8900136E001201C49A5
:103250000831086000201D49C1F8880101201E497D
:1032600008600020184938390860012014490C31E1
:1032700008600020174908600120134924390860BC
:10328000114908600F49C1F89001144800880428CA
:1032900013DA1348008807280FDB0948006808B9CB
:1032A000012000E000200649086000200C49088049
:1032B0000A480088401C0949088070BD7C00002035
:1032C0008481224200002342B8012342008022422E
:1032D00000002242A0012142A00122425000002011
:1032E0005A00002070B500240025FA480068012823
:1032F00048D105210020FDF7A9FC044605210E2038
:10330000FDF7A4FC0546B4F5967F02DDB5F5967F82
:1033100008DCF14890F8480000F0010010B10920E5
:10332000EE490880B4F5457F2CDBB4F55A7F29DAE5
:10333000B5F5467F26DD40F26D30854222DCE64859
:1033400090F84800C0F34000E0B10120E449086073
:103350000020E449C1F888010120E149091D086005
:103360000020E14908600120DD49083908600A2091
:10337000DA490880D848B0F8480020F00200D64961
:10338000A1F84800D9480088012813D1D8480088FE
:10339000401CD7490880D7480088401CD549088080
:1033A000D5480088401CD4490880D4480088401C77
:1033B000D2490880CF480088022802DB0020CD498E
:1033C0000880C64800880B287CD2DFE810F00B008C
:1033D0009E0024017B00C3013C02BE027B00480327
:1033E00026044904C648006868B90020B949086045
:1033F000C4490860BE490880BF490880BF490880A9
:103400000120BF490860BA48008814287CDB0020EE
:10341000B3490860B349C1F88801B149091D086082
:10342000B1490860AF49C1F88401B1480088B0F5DE
:10343000167F69DBB448006858B905210020FDF704
:1034400005FCA54908840120AF4908600020AA496D
:103450000880A148008CB0F5457F45DB9E48008C74
:10346000B0F55A7F40DAA948408820F4407000F552
:103470008070A64948800120A249103108609E480A
:103480000088C82840DB05210020FDF7DFFB9249BA
:10349000488400209B49103108608F48408C40F2DE
:1034A000432188420FDB8C48408C40F2E221884265
:1034B00009DC9648408820F4406000F5806093491C
:1034C000488008E0FEE39148408820F4406000F521
:1034D00000608E49488000208B4908608849086058
:1034E00001207E4908800FE08848408820F4407021
:1034F00000F50070854948800020834908608049B4
:1035000008600120754908801EE27D48006858B9AE
:103510000020774908807849088078490880012090
:10352000774908607A490860714800880A2871DB89
:103530000020774908606E48008828286ADB7248B6
:10354000006858B905210020FDF780FB6249888496
:1035500001206D4908600020674908805E48808C22
:1035600040F29651884245DB5B48808C40F22D61E9
:1035700088423FDC6548408820F4405000F5805088
:103580006249488001205F49083108605A48008834
:10359000C8283FDB05210020FDF758FB4E49C884B1
:1035A00000205849083108604B48C08C40F2145143
:1035B00088420EDB4848C08C40F20161884208DC3A
:1035C0005248408820F4404000F580404F494880F0
:1035D00007E04E48408820F4404000F500404B4949
:1035E00048800020484908604549086002203B495E
:1035F00008800FE04548408820F4405000F5005016
:10360000424948800020404908603D490860022046
:103610003249088084E33A48006848B900203449B8
:10362000088035490880012035490860384908601C
:103630002F4800880A284CDB0020354908602C48B8
:103640000088282845DB3048006858B9052100204B
:10365000FDF7FCFA2049088501202B49086000206D
:10366000254908801C48008D40F27471884261DB56
:103670001948008D40F63D0188425BDC2348808874
:1036800020F00300401C2149888001201D491C3185
:10369000086019480088C8285BDB05210020FDF779
:1036A000D5FA0D494885002016491C3108600A48A2
:1036B000408DB0F5E26F2DDD0748408DB0F5FA6F13
:1036C00028DC1248808820F00C00001D0F498880FB
:1036D00027E03EE078000020080200208C00002057
:1036E0008C81224200802242A0012142420000201F
:1036F0005A000020580000205C0000205E000020DE
:103700004C00002084012342480000207C0000205F
:10371000AC812142FE48808820F00C000830FC4932
:1037200088800020FB490860FB4908600420FB49B1
:1037300008800EE0F648808820F00300801CF449E1
:1037400088800020F3490860F34908600420F349A9
:103750000880E5E2F048006860B90020F049088080
:10376000F0490880F04908600120F049C1F884015F
:10377000E9490860EA480088B0F5167F62DBE54851
:10378000006858B905210E20FDF760FAE8498881E4
:103790000120E04908600020E2490880E44880896F
:1037A000B0F5467F3FDDE248808940F26D318842C6
:1037B00039DCD748008820F030001030D449088028
:1037C0000120DC490860D7480088C8283ADB052179
:1037D0000E20FDF73BFAD649C8810020D549086084
:1037E000D348C08940F2432188420CDBD048C089CD
:1037F000B0F5307F07DAC648008820F0C0004030BE
:10380000C349088006E0C248008820F0C00080302C
:10381000BF4908800020BF490860BF4908600520F3
:10382000BE4908800EE0BA48008820F03000203001
:10383000B74908800020B7490860B74908600520EB
:10384000B64908806CE2B448006850B90020B44919
:103850000880B44908800120AF490860B24910319E
:103860000860AF4800880A286EDB0020AE4910319E
:103870000860AB480088282866DBA648006858B96D
:1038800005210E20FDF7E2F9A94908820120A1498E
:1038900008600020A3490880A548008AB0F5B36FEE
:1038A00042DBA348008AB0F5C66F3DDA984800882D
:1038B00020F4407000F580709549088001209E49F1
:1038C000086098480088C8283EDB05210E20FDF7D7
:1038D000BDF9974948820020974908609448408A7A
:1038E00040F2E64188420EDB9148408A40F26B513B
:1038F000884208DC8648008820F4406000F580603B
:103900008349088007E08248008820F4406000F581
:1039100000607F49088000207E4908607E49086079
:1039200006207E4908800FE07948008820F4407026
:1039300000F50070764908800020764908607649D5
:103940000860062075490880EAE17348006850B9AC
:103950000020734908807349088001206E4908607F
:103960007149103108606E4800880A2876DB002013
:103970006D49103108606A48008828286EDB654868
:10398000006858B905210E20FDF760F96849888262
:103990000120604908600020624908806448808AEC
:1039A00040F27571884246DB6148808AB0F5046F49
:1039B00041DA5748008820F4405000F580505449BF
:1039C000088001205C49091D086056480088C82805
:1039D00044DB05210E20FDF739F95549C882002046
:1039E0005549091D08605248C08A40F2E561884285
:1039F0000DDB4F48C08AB0F5F46F08DA4448008800
:103A000020F4404000F580404149088007E04048EC
:103A1000008820F4404000F500403D490880012026
:103A20004149086000203B4908603B490860082084
:103A30003A49088012E03648008820F4405000F5EA
:103A4000005033490880012037490860002031497F
:103A500008603149086008203049088060E12E483C
:103A6000006838B900202E4908802E4908800120BE
:103A7000294908602A48008864287DDB25480068B9
:103A800088B905210020FDF7E1F8294908830521BF
:103A90000E20FDF7DBF82649888301201D490860C8
:103AA0000020204908802248008BB0F5467F79DB52
:103AB0001F48008BB0F55B7F74DC1D48808B40F2A3
:103AC0001A3188426EDB1A48808B40F26E31884290
:103AD00068DC0F48408820F00300401C0C494880F7
:103AE0000846408820F030001030488001201149FD
:103AF0001C3908600D49C1F8B0010A480088C8287F
:103B00003ADB05210020FDF7A1F80949488315E0BB
:103B10007C000020480000204C0000208C00002089
:103B20005A0000205C000020A881214200002342AE
:103B300008020020B0012342A881224205210E2064
:103B4000FDF784F8FC49C8830020FC490860FC4963
:103B5000C1F89401F848408B40F24321884222DBAF
:103B6000F548408B40F2E22188421CDCF248C08BD1
:103B700040F24321884200E04EE014DBEE48C08B67
:103B800040F2E22188420EDCEE48408820F00C0032
:103B9000001DEC4948800846408820F0C0004030B5
:103BA00048800DE01CE0E748408820F00C00083019
:103BB000E44948800846408820F0C00080304880B2
:103BC0000120E1490860DC48B0F8480020F001001D
:103BD000401CD949A1F848000C20DC4908801BE0B2
:103BE000D848408820F00300801CD6494880084609
:103BF000408820F03000203048800120D249086001
:103C0000CD48B0F8480020F00100401CCA49A1F896
:103C100048000C20CD49088082E0C748B0F8480031
:103C200020F00100C449A1F848000020C8490860FC
:103C3000C849C1F88801C8490860C5490831086009
:103C4000091D0860C5490860C5490860BA48B0F850
:103C5000480020F00200801CB749A1F848005FE04E
:103C60000020B8490880488088800846408820F4B1
:103C7000407048800846408820F4406048800846EC
:103C8000408820F4405048800846408820F4404056
:103C900048800846808820F0030088800846808895
:103CA00020F00C0088800846008820F03000088052
:103CB0000846008820F0C00008800846008820F4EC
:103CC000407000E02BE008800846008820F4406047
:103CD00008800846008820F4405008800846008884
:103CE00020F4404008800846408820F003004880C7
:103CF0000846408820F00C0048800846408820F0A4
:103D0000300048800846408820F0C00048800020ED
:103D100092490860934908808C49088000E000BF00
:103D200000BF854890F8480000F0010000287CD0D2
:103D300084484088C0F30120022858D08148408838
:103D4000C0F38120022852D07E484088C0F3013061
:103D500002284CD07B4840880221B1EB903F46D0EE
:103D60007848007900F00300022840D075480079B7
:103D7000C0F3810002283AD072480078C0F30110E5
:103D8000022834D06F480078C0F3811002282ED06A
:103D90006C480088C0F30120022828D069480088B8
:103DA000C0F38120022822D066480088C0F3013089
:103DB00002281CD063480088B1EB903F17D06148BF
:103DC000807800F00300022811D05E488078C0F3AC
:103DD000810002280BD05B488078C0F301100228D4
:103DE00005D058488078C0F3811002287DD1012089
:103DF0005749086053484088C0F3012002281FD06B
:103E000050484088C0F38120022819D04D4840888E
:103E1000C0F30130022813D04A4840880221B1EB98
:103E2000903F0DD04748007900E0ACE000F003007F
:103E3000022805D043480079C0F38100022808D148
:103E400001204349091D086000204249C1F88C0146
:103E500007E000203E49091D086001203D49C1F8E6
:103E60008C0138480078C0F30110022835D035485D
:103E70000078C0F3811002282FD032480088C0F3A8
:103E80000120022829D02F480088C0F38120022871
:103E900023D02C480088C0F3013002281DD02948C7
:103EA00000880221B1EB903F17D02648807800F0BF
:103EB0000300022811D023488078C0F38100022833
:103EC0000BD020488078C0F30110022805D01D488F
:103ED0008078C0F38110022808D101201E490860B3
:103EE00000201C49C1F890014DE007E000201A496C
:103EF000086001201749C1F8900144E001201449ED
:103F00000831086000201349C1F8880101201049D8
:103F10000C31086000201449C1F8A0011148008844
:103F2000042830DA114800880A282CDB0848006889
:103F3000F0B901201DE0000008020020B00123427A
:103F4000000023427C000020780000208C0000202C
:103F50008481224200802242A001214248000020A8
:103F60004C00002050000020000021425A00002098
:103F700000200549086000200449088004480088A2
:103F8000401C0349088070BD848122425A000020F1
:103F90005000002000BFFEE77047000070B5002110
:103FA00000230F22C47804B3154C246804F4E064A1
:103FB000C4F5E064210AC1F10403CA40447804FA5C
:103FC00003F184781440214309010E4C0678A15571
:103FD000047804F01F050124AC4005786D11AD0094
:103FE00005F1E025C5F8004109E0047804F01F055B
:103FF0000124AC40044D0678761145F8264070BD8A
:104000000CED00E000E400E080E100E0704700001B
:1040100000200649086001200549086005E0FCF71A
:1040200097FCFCF767FE00F01BFBF8E7740000202C
:10403000780000200120064908600649086005E074
:10404000FCF786FCFDF78AFB00F00AFBF8E70000AE
:104050007400002078000020012008490860084909
:104060000860084908600849C1F8840105E0FCF7C8
:104070006FFCFFF737F900F0F3FAF8E7740000205F
:1040800078000020A8812142000023420146002040
:10409000034A506820F440400843506070470000D5
:1040A0000010024029B1064AD2690243044BDA618A
:1040B00004E0034AD2698243014BDA617047000091
:1040C0000010024029B1064A92690243044B9A61EA
:1040D00004E0034A92698243014B9A6170470000F1
:1040E0000010024029B1064AD2680243044BDA604C
:1040F00004E0034AD2688243014BDA607047000053
:104100000010024010B500F0BDFB01210420FFF7B4
:10411000D9FF01210820FFF7D5FF01211020FFF76B
:10412000D1FF01212020FFF7CDFF01214020FFF723
:10413000C9FF0121C804FFF7B5FF01214802FFF7BD
:10414000C1FF4FF40040FFF7A1FF10BD2DE9F04182
:1041500000210022002500230026002400278C4691
:10416000DFF86081D8F8048008F00C0121B104293F
:1041700007D0082959D109E0DFF84C81C0F8008048
:1041800058E0DFF84881C0F8008053E0DFF8348160
:10419000D8F8048008F47012DFF82881D8F8048079
:1041A00008F48035920C0D2A01D0921C00E0062202
:1041B00035B9DFF81C8102FB08F8C0F8008033E055
:1041C000DFF80081D8F82C8008F48036DFF8F4801E
:1041D000D8F82C8008F00F0808F1010446B9DFF880
:1041E000EC80B8FBF4F808FB02F8C0F800801BE094
:1041F000DFF8D080D8F82C80C8F3031808F1010745
:10420000DFF8C080D8F82C80C8F3032808F1020C2E
:10421000DFF8B880B8FBF7F808FB0CF8B8FBF4F847
:1042200008FB02F8C0F8008004E0DFF89C80C0F8CA
:10423000008000BF00BFDFF88C80D8F8048008F051
:10424000F0010909DFF88C8018F80130D0F80080FF
:1042500028FA03F8C0F80480DFF86880D8F80480F2
:1042600008F4E061090ADFF86C8018F80130D0F832
:10427000048028FA03F8C0F80880DFF84880D8F8EE
:10428000048008F46051C90ADFF8488018F801304A
:10429000D0F8048028FA03F8C0F80C80DFF82480F6
:1042A000D8F8048008F44041890BDFF82C8018F816
:1042B0000130D0F80C80B8FBF3F8C0F81080BDE8EE
:1042C000F08100000010024000127A0040787D0169
:1042D00000093D0028000020380000202DE9F047AB
:1042E00004468946164600F07EFD04EB440156481C
:1042F00000EBC100007D00F00300022827D004EB92
:104300004401514800EBC100D0F8108004EB440197
:104310004D4800EBC100C068A8EB0000451E002D11
:1043200006DA04EB4401484800EBC100806805440C
:10433000AE420CDD04EB4401434800EBC100007DBC
:1043400000F0030010B90020BDE8F0872E460EB93A
:104350000020F9E7002700BF04EB44013A4800EBD6
:10436000C100D0F8108004EB4401374800EBC100D5
:10437000C068A8EB0000451E002D06DA04EB4401DE
:10438000314800EBC1008068054404EB44012E482D
:1043900000EBC10004EB440281682B4800EBC20033
:1043A000C068081AA84201DD28460CE004EB44016D
:1043B000254800EBC10004EB44028168224800EB71
:1043C000C200C068081A0546B54201DA284600E076
:1043D0003046054604EB44021B4901EBC20104EBE5
:1043E00044034A68184901EBC301C96850182A46BA
:1043F0004946FBF70BFF2F44A944761B04EB44010D
:10440000114800EBC100C068411904EB44020E489A
:1044100000EBC200C16004EB44010B4800EBC1009B
:10442000C16804EB4402084800EBC2008068814286
:1044300006D1002104EB4402034800EBC200C16036
:10444000002E89D138467FE7A80000200FB438B588
:10445000044606A800906A462046059900F003F835
:1044600038BC5DF814FB2DE9F04F99B081460D463C
:10447000144603A814904020159000201690CDF803
:104480006090179000BF15F8016B06B9D4E0252E97
:1044900073D1002700BF2E78232E12D02B2E0CD0E4
:1044A0002D2E02D0302E10D103E047F001076D1CF5
:1044B0000CE047F002076D1C08E047F004076D1C94
:1044C00004E047F008076D1C00E001E000BFE2E7F0
:1044D0004FF0000800BF2E78302E01DB392E00DDB2
:1044E00007E06D1CA6F1300008EB880100EB4108E5
:1044F000F1E700BF002013902E782E2E12D16D1CF4
:1045000000BF2E78302E01DB392E00DD09E06D1C56
:10451000A6F13000139901EB810100EB41001390EB
:10452000EFE700BF2E7800BF6C2E01D0682E02D1BD
:1045300015F8016B00E000E0F6E700BF702E5BD0DD
:1045400008DC252E68D0582E35D0632E09D0642E75
:1045500067D113E0732E3CD0752E1DD0782E60D11C
:1045600028E02168081D2060D1F800A00AF0FF0BA8
:10457000594614A800F028FD53E055E02168081DB5
:104580002060D1F800A0CDE900870A22514614A886
:10459000139B00F029FC44E02168081D2060D1F83D
:1045A00000A0CDE900870A22514614A8139B00F011
:1045B00091FC36E000BF2168081D2060D1F800A002
:1045C000CDE900871022514614A8139B00F082FC0D
:1045D00027E02168081D2060D1F800B000BF1BF85B
:1045E000016B06B906E0314614A800F0EDFC1798FF
:1045F0000028F4DA00BF14E02168081D2060D1F81B
:1046000000A0002008210B461022CDE900105146E1
:1046100014A800F05FFC04E0252114A800F0D4FCED
:1046200000BF00BF6D1C03E0314614A800F0CCFCB5
:1046300017980028BFF627AF00BF179800280ADD9B
:10464000169820B103A94846169AFFF747FEDDE900
:10465000161008441790179819B0BDE8F08F7047EE
:1046600010B50024114890F84800C0F3C000D8B13C
:10467000FBF7CCFF00BF0DE00D48015D0D4800F0D9
:10468000ACFB00BF0B48008800F080000028F9D088
:10469000601C84B22A2CEFDB0448B0F8480020F0FC
:1046A00008000249A1F8480010BD000008020020DF
:1046B0000C010020004C004010B500F001F810BDC6
:1046C0000CB50020019000903F48006840F4803015
:1046D0003D49086000BF3C48006800F4003000908D
:1046E0000198401C0190009818B90198B0F5A06F8E
:1046F000F1D13548006800F4003010B1012000907D
:1047000001E000200090009801285CD12F4800684B
:1047100040F010002D4908600846006820F00300B2
:1047200008600846006840F00200086026484068BB
:10473000254948600846406848600846406840F49B
:10474000806048600846C06A214908401E49C86226
:104750000846C06A1F4908431B49C86208460068EA
:1047600040F08060086000BF1748006800F00060FB
:104770000028F9D01448406820F47C1012494860A1
:104780000846406840F4E81048600846006840F079
:104790008070086000BF0C48006800F000700028BE
:1047A000F9D00948406820F00300074948600846EE
:1047B000406840F00200486000BF0348406800F0D5
:1047C0000C000828F9D10CBD001002400020024066
:1047D00000F0FEFF4406010010B54FF48051194867
:1047E000FCF711FA18B101201749086002E0002017
:1047F000154908604FF400511248FCF704FA18B14B
:1048000001201249086002E00020104908604FF4BE
:1048100080410C48FCF7F7F918B101200C490860F9
:1048200002E000200A4908604FF400410548FCF707
:10483000EAF918B101200749086002E000200549A3
:10484000086010BD00140140040000200800002092
:104850000C00002010000020042808D14FF0E021B7
:10486000096941F004014FF0E022116107E04FF0C7
:10487000E021096921F004014FF0E0221161704745
:104880007047000010B51648006840F00100144958
:1048900008600846406813490840114948600846C6
:1048A0000068114908400E4908600846006820F475
:1048B000802008600846406820F4FE0048600846F2
:1048C000006820F0A05008604FF47F00886000204E
:1048D000C862FFF7F1FE4FF000600449086010BDA8
:1048E000001002400000FFF0FFFFF6FE08ED00E0C0
:1048F00010B501210B4800F058F888B10121094892
:1049000000F044F808480088401C07490880084621
:10491000008841F27071884202DB00200249088061
:1049200010BD000000040040400000207FB5044698
:104930000D4601210220FFF7B5FBADF80450002021
:10494000ADF80600ADF80840ADF80A0001A90E4820
:1049500000F046F8012211460B4800F037F81D2000
:104960008DF8000000208DF8010002208DF8020073
:1049700001208DF803006846FFF710FB0121024873
:1049800000F007F87FBD000000040040CA43028227
:10499000704721B1028842F00102028004E00288DF
:1049A0004FF6FE731A400280704730B50246002071
:1049B00000230024158A05EA0103958905EA01040C
:1049C00013B10CB1012000E0002030BD1AB1838981
:1049D0000B43838102E083898B438381704700000E
:1049E000002202881D4B98420ED01D4B98420BD0DE
:1049F000B0F1804F08D01B4B984205D01A4B98421B
:104A000002D01A4B984204D14FF68F731A404B884C
:104A10001A43174B984207D0164B984204D04FF6D2
:104A2000FF431A40CB881A4302808B8883850B880A
:104A300003850A4B98420BD0094B984208D00E4B85
:104A4000984205D00D4B984202D00D4B984201D1AF
:104A50000B7A03860123838270470000002C0140FB
:104A6000003401400004004000080040000C0040F9
:104A7000001000400014004000400140004401408C
:104A80000048014070B5002540F22551394800F03A
:104A9000E4F800286BD040F22551364800F0C2F807
:104AA000344800F095F9C4B233480068334988426D
:104AB0000DD1032C39D13048006804602E480068BD
:104AC000001D2D49086001202D4908802DE02A484D
:104AD00000682A49401AC821B1EBA00F06D2274826
:104AE0002549086000202649088070BD22480068DA
:104AF000046021480068001D1F49086020480088A4
:104B0000401C1F4908800D2C0FD10846008815282D
:104B10000BDB1A48184908601A48B0F8480020F022
:104B2000080008301749A1F84800164890F84800D6
:104B3000C0F3C000D8B1FBF769FD00250DE01248B5
:104B4000415D0C4800F049F900BF0A48008800F0B8
:104B500080000028F9D0681C85B22A2DEFDB0948B7
:104B6000B0F8480020F008000649A1F8480000BF4E
:104B7000BBE70000004C00406C000020400100201A
:104B80006A000020080200200C01002010B586B049
:104B900004464FF48060ADF8140003208DF8160031
:104BA00018208DF8170005A91C48FBF7A1FF4FF44A
:104BB0000060ADF8140004208DF8170005A917480F
:104BC000FBF796FF34208DF8000003208DF80100DC
:104BD00001208DF802008DF803006846FFF7DEF92A
:104BE00001940020ADF80800ADF80A00ADF80C0003
:104BF000ADF810000C20ADF80E0001A9084800F037
:104C00007BF8012240F22551054800F050F80121BF
:104C1000034800F016F806B010BD00000010014077
:104C2000004C004010B50022002340F66A14A14257
:104C300000D100BF0A1201249440A3B2DC430480D7
:104C400010BD21B1828942F40052828104E0828940
:104C50004DF6FF731A408281704770B502460024FA
:104C600000230025002040F66A16B14200D100BFA3
:104C7000C1F3421501F01F03012606FA03F3012DCB
:104C800002D19689334006E0022D02D1168A3340C4
:104C900001E0968A33400C12012606FA04F41688C5
:104CA000344013B10CB1012000E0002070BDF0B51C
:104CB0000346002400260025002040F66A17B9426A
:104CC00000D100BF1846C1F3421401F01F060127AE
:104CD00007FA06F5012C01D10C3004E0022C01D1B9
:104CE000103000E014301AB107682F43076002E06B
:104CF0000768AF430760F0BD2DE9F04786B0054671
:104D00000E460024A24600BFA1460027B08900B18C
:104D100000BF2F462C8A4CF6FF700440F0880443F5
:104D20002C82AC894EF6F3100440B08831890843D8
:104D3000718908430443AC81AC8A4FF6FF400440BC
:104D4000B0890443AC8201A8FFF700FA1F488742EC
:104D500002D1DDF810A001E0DDF80CA0A88900F474
:104D6000004040B10AEBCA0000EB0A10316849006C
:104D7000B0FBF1F807E00AEBCA0000EB0A1031685B
:104D80008900B0FBF1F86420B8FBF0F004012009C1
:104D9000642101FB1089A88900F4004040B1322051
:104DA00000EBC900B0FBF1F000F00700044308E09D
:104DB000322000EB09106421B0FBF1F000F00F008D
:104DC00004432C8106B0BDE8F087000000380140A4
:104DD00001468888C0F308007047C1F3080282804A
:104DE000704700BFFEE770472DE9FC5F07460E469F
:104DF00092469846DDE90C45002E01DA704200E04B
:104E0000304683464FF0010903E0BBFBFAFB09F192
:104E10000109D345F9D2C84500D9C14634B1002EA5
:104E200003DB05F00400042800D1641E05F0020035
:104E300010B1B8F1000F12D005F0010078B974B1CB
:104E400008E02021384600F0BFF8F868002801DAB1
:104E5000BDE8FC9F1CB12046641E4845F1D8002ED9
:104E600008DA76422D21384600F0AEF8F8680028BE
:104E70000CDAEDE705F00400042807D12B213846B1
:104E800000F0A2F8F868002800DAE1E705F0020077
:104E9000022814D105F0010088B9B8F1000F0ED135
:104EA0006CB107E03021384600F08EF8F868002831
:104EB00000DACDE71CB12046641E4845F2D84346CF
:104EC000524631463846CDE9004500F003F800BFB0
:104ED000BEE700002DE9FE4F81460F461446984676
:104EE000DDE90C5B01260197B24605E00198B0FBB5
:104EF000F4F001900AF1010A0198A042F6D2D045DF
:104F000000D9C2460BF00100E0B9DDB10BF00200A0
:104F1000022805D1B8F1000F02D13020009001E045
:104F20002020009009E04846009900F04DF8D9F89B
:104F30000C00002801DABDE8FE8F1DB128466D1E69
:104F40005045F0D800E06643B7FBF6F0A04201D32D
:104F5000012000E000204146A8F10108012901DDFF
:104F6000012100E0002108430028ECD100BFB7FB7D
:104F7000F6F00290029800FB1677124A0298115C34
:104F8000484600F021F8D9F80C00002800DA03E0C8
:104F9000B6FBF4F6002EEAD100BF0BF0010078B1A9
:104FA00075B108E02021484600F00EF8D9F80C0051
:104FB000002800DABFE71DB128466D1E5045F1D824
:104FC00000BFB8E73451000870B504460E46A56826
:104FD000681C6168814206DB20684655681CA06039
:104FE000E068401CE060D4E9011088420DD1A2685D
:104FF00021682069FFF772F9A168884203D04FF059
:10500000FF30E06001E00020A06070BD10B56FF0DF
:105010000400FFF721FC0A4800680A49B0FBF1F0E0
:10502000094908700846007800EB4001C1EBC01048
:105030004FF6FF7101EAC0000449088010BD00006E
:105040001400002000127A003C0000203E000020E6
:105050000146114A12884A434FF0E0235A61002268
:105060009A611A46126942F001021A6100BF4FF0BC
:10507000E022106900F001021AB100F48032002A27
:10508000F5D04FF0E022126922F001024FF0E02348
:105090001A6100229A6170473E00002010B5FFF7A8
:1050A00031F8FBF7F5FCFFF797FBFBF755FAFBF739
:1050B000BDFCFBF77BFC472140F2E730FFF736FCF5
:1050C0004FF41650FFF762FDFFF7A0FFFBF7D8FD86
:1050D00013480068C1001348006801EB80011248C2
:1050E000006801EB40001149096808441049086054
:1050F00008460068062810D2DFE800F00306090C15
:105100000D0EFEF785FF08E0FEF7A6FF05E0FEF7AF
:1051100091FF02E001E000E000BF00BF002010BDF1
:1051200004000020080000200C00002010000020D7
:1051300000000020303132333435363738394142BF
:10514000434445465465726D696E616C0000000011
:1051500070510008000000200C0100006C010008E4
:105160007C5200080C010020BC0B000088010008E4
:10517000000000000000000000000000000000002F
:105180000000000000A24A0400000000000000002F
:1051900001020304060708090000000001020304DD
:1051A00001020304060708090204060800000000C3
:1051B00000000000000000000000000000000000EF
:1051C00000000000000000000000000000000000DF
:1051D00000000000000000000000000000000000CF
:1051E00000000000000000000000000000000000BF
:1051F00000000000000000000000000000000000AF
:1052000053454747455220525454000000000000C7
:105210000200000002000000445100085202002079
:10522000000400000000000000000000000000007A
:10523000000000000000000000000000000000006E
:105240000000000000000000445100085206002049
:10525000100000000000000000000000000000003E
:10526000000000000000000000000000000000003E
:0C52700000000000000000000000000032
:0400000508000131BD
:00000001FF
